{
  "_format": "hh-sol-artifact-1",
  "contractName": "KumaWorld",
  "sourceName": "contracts/KumaWorld.sol",
  "abi": [
    {
      "inputs": [],
      "stateMutability": "nonpayable",
      "type": "constructor"
    },
    {
      "inputs": [],
      "name": "ApprovalCallerNotOwnerNorApproved",
      "type": "error"
    },
    {
      "inputs": [],
      "name": "ApprovalQueryForNonexistentToken",
      "type": "error"
    },
    {
      "inputs": [],
      "name": "ApproveToCaller",
      "type": "error"
    },
    {
      "inputs": [],
      "name": "BalanceQueryForZeroAddress",
      "type": "error"
    },
    {
      "inputs": [],
      "name": "MintERC2309QuantityExceedsLimit",
      "type": "error"
    },
    {
      "inputs": [],
      "name": "MintToZeroAddress",
      "type": "error"
    },
    {
      "inputs": [],
      "name": "MintZeroQuantity",
      "type": "error"
    },
    {
      "inputs": [],
      "name": "OwnerQueryForNonexistentToken",
      "type": "error"
    },
    {
      "inputs": [],
      "name": "OwnershipNotInitializedForExtraData",
      "type": "error"
    },
    {
      "inputs": [],
      "name": "TransferCallerNotOwnerNorApproved",
      "type": "error"
    },
    {
      "inputs": [],
      "name": "TransferFromIncorrectOwner",
      "type": "error"
    },
    {
      "inputs": [],
      "name": "TransferToNonERC721ReceiverImplementer",
      "type": "error"
    },
    {
      "inputs": [],
      "name": "TransferToZeroAddress",
      "type": "error"
    },
    {
      "inputs": [],
      "name": "URIQueryForNonexistentToken",
      "type": "error"
    },
    {
      "anonymous": false,
      "inputs": [
        {
          "indexed": true,
          "internalType": "address",
          "name": "owner",
          "type": "address"
        },
        {
          "indexed": true,
          "internalType": "address",
          "name": "approved",
          "type": "address"
        },
        {
          "indexed": true,
          "internalType": "uint256",
          "name": "tokenId",
          "type": "uint256"
        }
      ],
      "name": "Approval",
      "type": "event"
    },
    {
      "anonymous": false,
      "inputs": [
        {
          "indexed": true,
          "internalType": "address",
          "name": "owner",
          "type": "address"
        },
        {
          "indexed": true,
          "internalType": "address",
          "name": "operator",
          "type": "address"
        },
        {
          "indexed": false,
          "internalType": "bool",
          "name": "approved",
          "type": "bool"
        }
      ],
      "name": "ApprovalForAll",
      "type": "event"
    },
    {
      "anonymous": false,
      "inputs": [
        {
          "indexed": true,
          "internalType": "uint256",
          "name": "fromTokenId",
          "type": "uint256"
        },
        {
          "indexed": false,
          "internalType": "uint256",
          "name": "toTokenId",
          "type": "uint256"
        },
        {
          "indexed": true,
          "internalType": "address",
          "name": "from",
          "type": "address"
        },
        {
          "indexed": true,
          "internalType": "address",
          "name": "to",
          "type": "address"
        }
      ],
      "name": "ConsecutiveTransfer",
      "type": "event"
    },
    {
      "anonymous": false,
      "inputs": [
        {
          "indexed": true,
          "internalType": "address",
          "name": "previousOwner",
          "type": "address"
        },
        {
          "indexed": true,
          "internalType": "address",
          "name": "newOwner",
          "type": "address"
        }
      ],
      "name": "OwnershipTransferred",
      "type": "event"
    },
    {
      "anonymous": false,
      "inputs": [
        {
          "indexed": true,
          "internalType": "address",
          "name": "from",
          "type": "address"
        },
        {
          "indexed": true,
          "internalType": "address",
          "name": "to",
          "type": "address"
        },
        {
          "indexed": true,
          "internalType": "uint256",
          "name": "tokenId",
          "type": "uint256"
        }
      ],
      "name": "Transfer",
      "type": "event"
    },
    {
      "inputs": [],
      "name": "MAX_FREE_KUMAS_SUPPLY",
      "outputs": [
        {
          "internalType": "uint256",
          "name": "",
          "type": "uint256"
        }
      ],
      "stateMutability": "view",
      "type": "function"
    },
    {
      "inputs": [],
      "name": "MAX_FREE_PER_WALLET",
      "outputs": [
        {
          "internalType": "uint256",
          "name": "",
          "type": "uint256"
        }
      ],
      "stateMutability": "view",
      "type": "function"
    },
    {
      "inputs": [],
      "name": "MAX_KUMAS",
      "outputs": [
        {
          "internalType": "uint256",
          "name": "",
          "type": "uint256"
        }
      ],
      "stateMutability": "view",
      "type": "function"
    },
    {
      "inputs": [],
      "name": "MAX_KUMAS_PER_TX",
      "outputs": [
        {
          "internalType": "uint256",
          "name": "",
          "type": "uint256"
        }
      ],
      "stateMutability": "view",
      "type": "function"
    },
    {
      "inputs": [],
      "name": "MAX_KUMAS_PER_WALLET",
      "outputs": [
        {
          "internalType": "uint256",
          "name": "",
          "type": "uint256"
        }
      ],
      "stateMutability": "view",
      "type": "function"
    },
    {
      "inputs": [],
      "name": "PRICE",
      "outputs": [
        {
          "internalType": "uint256",
          "name": "",
          "type": "uint256"
        }
      ],
      "stateMutability": "view",
      "type": "function"
    },
    {
      "inputs": [
        {
          "internalType": "address",
          "name": "to",
          "type": "address"
        },
        {
          "internalType": "uint256",
          "name": "tokenId",
          "type": "uint256"
        }
      ],
      "name": "approve",
      "outputs": [],
      "stateMutability": "nonpayable",
      "type": "function"
    },
    {
      "inputs": [
        {
          "internalType": "address",
          "name": "owner",
          "type": "address"
        }
      ],
      "name": "balanceOf",
      "outputs": [
        {
          "internalType": "uint256",
          "name": "",
          "type": "uint256"
        }
      ],
      "stateMutability": "view",
      "type": "function"
    },
    {
      "inputs": [],
      "name": "baseTokenURI",
      "outputs": [
        {
          "internalType": "string",
          "name": "",
          "type": "string"
        }
      ],
      "stateMutability": "view",
      "type": "function"
    },
    {
      "inputs": [
        {
          "internalType": "uint256[]",
          "name": "tokenids",
          "type": "uint256[]"
        }
      ],
      "name": "burnKumas",
      "outputs": [],
      "stateMutability": "nonpayable",
      "type": "function"
    },
    {
      "inputs": [
        {
          "internalType": "uint256",
          "name": "tokenId",
          "type": "uint256"
        }
      ],
      "name": "getApproved",
      "outputs": [
        {
          "internalType": "address",
          "name": "",
          "type": "address"
        }
      ],
      "stateMutability": "view",
      "type": "function"
    },
    {
      "inputs": [],
      "name": "initialize",
      "outputs": [
        {
          "internalType": "bool",
          "name": "",
          "type": "bool"
        }
      ],
      "stateMutability": "view",
      "type": "function"
    },
    {
      "inputs": [
        {
          "internalType": "address",
          "name": "owner",
          "type": "address"
        },
        {
          "internalType": "address",
          "name": "operator",
          "type": "address"
        }
      ],
      "name": "isApprovedForAll",
      "outputs": [
        {
          "internalType": "bool",
          "name": "",
          "type": "bool"
        }
      ],
      "stateMutability": "view",
      "type": "function"
    },
    {
      "inputs": [
        {
          "internalType": "uint256",
          "name": "kumas",
          "type": "uint256"
        }
      ],
      "name": "mint",
      "outputs": [],
      "stateMutability": "payable",
      "type": "function"
    },
    {
      "inputs": [],
      "name": "name",
      "outputs": [
        {
          "internalType": "string",
          "name": "",
          "type": "string"
        }
      ],
      "stateMutability": "view",
      "type": "function"
    },
    {
      "inputs": [],
      "name": "owner",
      "outputs": [
        {
          "internalType": "address",
          "name": "",
          "type": "address"
        }
      ],
      "stateMutability": "view",
      "type": "function"
    },
    {
      "inputs": [
        {
          "internalType": "uint256",
          "name": "tokenId",
          "type": "uint256"
        }
      ],
      "name": "ownerOf",
      "outputs": [
        {
          "internalType": "address",
          "name": "",
          "type": "address"
        }
      ],
      "stateMutability": "view",
      "type": "function"
    },
    {
      "inputs": [
        {
          "internalType": "address",
          "name": "",
          "type": "address"
        }
      ],
      "name": "qtyFreeMinted",
      "outputs": [
        {
          "internalType": "uint256",
          "name": "",
          "type": "uint256"
        }
      ],
      "stateMutability": "view",
      "type": "function"
    },
    {
      "inputs": [],
      "name": "renounceOwnership",
      "outputs": [],
      "stateMutability": "nonpayable",
      "type": "function"
    },
    {
      "inputs": [
        {
          "internalType": "bool",
          "name": "_revealed",
          "type": "bool"
        }
      ],
      "name": "reveal",
      "outputs": [],
      "stateMutability": "nonpayable",
      "type": "function"
    },
    {
      "inputs": [],
      "name": "revealed",
      "outputs": [
        {
          "internalType": "bool",
          "name": "",
          "type": "bool"
        }
      ],
      "stateMutability": "view",
      "type": "function"
    },
    {
      "inputs": [
        {
          "internalType": "address",
          "name": "from",
          "type": "address"
        },
        {
          "internalType": "address",
          "name": "to",
          "type": "address"
        },
        {
          "internalType": "uint256",
          "name": "tokenId",
          "type": "uint256"
        }
      ],
      "name": "safeTransferFrom",
      "outputs": [],
      "stateMutability": "nonpayable",
      "type": "function"
    },
    {
      "inputs": [
        {
          "internalType": "address",
          "name": "from",
          "type": "address"
        },
        {
          "internalType": "address",
          "name": "to",
          "type": "address"
        },
        {
          "internalType": "uint256",
          "name": "tokenId",
          "type": "uint256"
        },
        {
          "internalType": "bytes",
          "name": "_data",
          "type": "bytes"
        }
      ],
      "name": "safeTransferFrom",
      "outputs": [],
      "stateMutability": "nonpayable",
      "type": "function"
    },
    {
      "inputs": [
        {
          "internalType": "address",
          "name": "operator",
          "type": "address"
        },
        {
          "internalType": "bool",
          "name": "approved",
          "type": "bool"
        }
      ],
      "name": "setApprovalForAll",
      "outputs": [],
      "stateMutability": "nonpayable",
      "type": "function"
    },
    {
      "inputs": [
        {
          "internalType": "string",
          "name": "baseURI",
          "type": "string"
        }
      ],
      "name": "setBaseURI",
      "outputs": [],
      "stateMutability": "nonpayable",
      "type": "function"
    },
    {
      "inputs": [
        {
          "internalType": "bool",
          "name": "_initialize",
          "type": "bool"
        }
      ],
      "name": "setInitialize",
      "outputs": [],
      "stateMutability": "nonpayable",
      "type": "function"
    },
    {
      "inputs": [
        {
          "internalType": "uint256",
          "name": "_limit",
          "type": "uint256"
        }
      ],
      "name": "setLimitFreeMintPerWallet",
      "outputs": [],
      "stateMutability": "nonpayable",
      "type": "function"
    },
    {
      "inputs": [
        {
          "internalType": "uint256",
          "name": "_limit",
          "type": "uint256"
        }
      ],
      "name": "setMaxLimitPerTransaction",
      "outputs": [],
      "stateMutability": "nonpayable",
      "type": "function"
    },
    {
      "inputs": [
        {
          "internalType": "uint256",
          "name": "_price",
          "type": "uint256"
        }
      ],
      "name": "setPrice",
      "outputs": [],
      "stateMutability": "nonpayable",
      "type": "function"
    },
    {
      "inputs": [
        {
          "internalType": "bytes4",
          "name": "interfaceId",
          "type": "bytes4"
        }
      ],
      "name": "supportsInterface",
      "outputs": [
        {
          "internalType": "bool",
          "name": "",
          "type": "bool"
        }
      ],
      "stateMutability": "view",
      "type": "function"
    },
    {
      "inputs": [],
      "name": "symbol",
      "outputs": [
        {
          "internalType": "string",
          "name": "",
          "type": "string"
        }
      ],
      "stateMutability": "view",
      "type": "function"
    },
    {
      "inputs": [
        {
          "internalType": "uint256",
          "name": "_tokenId",
          "type": "uint256"
        }
      ],
      "name": "tokenURI",
      "outputs": [
        {
          "internalType": "string",
          "name": "",
          "type": "string"
        }
      ],
      "stateMutability": "view",
      "type": "function"
    },
    {
      "inputs": [],
      "name": "totalSupply",
      "outputs": [
        {
          "internalType": "uint256",
          "name": "",
          "type": "uint256"
        }
      ],
      "stateMutability": "view",
      "type": "function"
    },
    {
      "inputs": [
        {
          "internalType": "address",
          "name": "from",
          "type": "address"
        },
        {
          "internalType": "address",
          "name": "to",
          "type": "address"
        },
        {
          "internalType": "uint256",
          "name": "tokenId",
          "type": "uint256"
        }
      ],
      "name": "transferFrom",
      "outputs": [],
      "stateMutability": "nonpayable",
      "type": "function"
    },
    {
      "inputs": [
        {
          "internalType": "address",
          "name": "newOwner",
          "type": "address"
        }
      ],
      "name": "transferOwnership",
      "outputs": [],
      "stateMutability": "nonpayable",
      "type": "function"
    },
    {
      "inputs": [],
      "name": "withdraw",
      "outputs": [],
      "stateMutability": "nonpayable",
      "type": "function"
    }
  ],
  "bytecode": "0x60806040526040518060a00160405280606181526020016200424660619139600a90805190602001906200003592919062000257565b506115b3600b55610d05600c55600a600d55600a600e556617a93c16344000600f55600a6010556001601160006101000a81548160ff0219169083151502179055506000601160016101000a81548160ff0219169083151502179055503480156200009f57600080fd5b506040518060400160405280600a81526020017f4b756d6120576f726c64000000000000000000000000000000000000000000008152506040518060400160405280600481526020017f4b554d410000000000000000000000000000000000000000000000000000000081525081600290805190602001906200012492919062000257565b5080600390805190602001906200013d92919062000257565b506200014e6200018460201b60201c565b6000819055505050620001766200016a6200018960201b60201c565b6200019160201b60201c565b60016009819055506200036c565b600090565b600033905090565b6000600860009054906101000a900473ffffffffffffffffffffffffffffffffffffffff16905081600860006101000a81548173ffffffffffffffffffffffffffffffffffffffff021916908373ffffffffffffffffffffffffffffffffffffffff1602179055508173ffffffffffffffffffffffffffffffffffffffff168173ffffffffffffffffffffffffffffffffffffffff167f8be0079c531659141344cd1fd0a4f28419497f9722a3daafe3b4186f6b6457e060405160405180910390a35050565b828054620002659062000307565b90600052602060002090601f016020900481019282620002895760008555620002d5565b82601f10620002a457805160ff1916838001178555620002d5565b82800160010185558215620002d5579182015b82811115620002d4578251825591602001919060010190620002b7565b5b509050620002e49190620002e8565b5090565b5b8082111562000303576000816000905550600101620002e9565b5090565b600060028204905060018216806200032057607f821691505b602082108114156200033757620003366200033d565b5b50919050565b7f4e487b7100000000000000000000000000000000000000000000000000000000600052602260045260246000fd5b613eca806200037c6000396000f3fe60806040526004361061020f5760003560e01c80638129fc1c11610118578063a22cb465116100a0578063c87b56dd1161006f578063c87b56dd14610756578063d547cfb714610793578063e19979f5146107be578063e985e9c5146107e7578063f2fde38b146108245761020f565b8063a22cb4651461069c578063a447fb05146106c5578063ad66639e146106f0578063b88d4fde1461072d5761020f565b8063940cd05b116100e7578063940cd05b146105d857806395d89b411461060157806398710d1e1461062c5780639e9fcffc14610657578063a0712d68146106805761020f565b80638129fc1c1461052e5780638d859f3e146105595780638da5cb5b1461058457806391b7f5ed146105af5761020f565b806340baf6c71161019b57806355f804b31161016a57806355f804b31461044b5780636352211e146104745780636a3c167b146104b157806370a08231146104da578063715018a6146105175761020f565b806340baf6c7146103a157806342842e0e146103cc5780634cc59b46146103f557806351830227146104205761020f565b806318160ddd116101e257806318160ddd146102e257806323b872dd1461030d578063289c8be714610336578063325660751461035f5780633ccfd60b1461038a5761020f565b806301ffc9a71461021457806306fdde0314610251578063081812fc1461027c578063095ea7b3146102b9575b600080fd5b34801561022057600080fd5b5061023b60048036038101906102369190612ee8565b61084d565b6040516102489190613441565b60405180910390f35b34801561025d57600080fd5b506102666108df565b604051610273919061345c565b60405180910390f35b34801561028857600080fd5b506102a3600480360381019061029e9190612f7b565b610971565b6040516102b091906133da565b60405180910390f35b3480156102c557600080fd5b506102e060048036038101906102db9190612e42565b6109ed565b005b3480156102ee57600080fd5b506102f7610b2e565b604051610304919061363e565b60405180910390f35b34801561031957600080fd5b50610334600480360381019061032f9190612d3c565b610b45565b005b34801561034257600080fd5b5061035d60048036038101906103589190612e7e565b610e6a565b005b34801561036b57600080fd5b50610374610f5e565b604051610381919061363e565b60405180910390f35b34801561039657600080fd5b5061039f610f64565b005b3480156103ad57600080fd5b506103b6611042565b6040516103c3919061363e565b60405180910390f35b3480156103d857600080fd5b506103f360048036038101906103ee9190612d3c565b611048565b005b34801561040157600080fd5b5061040a611068565b604051610417919061363e565b60405180910390f35b34801561042c57600080fd5b5061043561106e565b6040516104429190613441565b60405180910390f35b34801561045757600080fd5b50610472600480360381019061046d9190612f3a565b611081565b005b34801561048057600080fd5b5061049b60048036038101906104969190612f7b565b611117565b6040516104a891906133da565b60405180910390f35b3480156104bd57600080fd5b506104d860048036038101906104d39190612ebf565b611129565b005b3480156104e657600080fd5b5061050160048036038101906104fc9190612cd7565b6111c2565b60405161050e919061363e565b60405180910390f35b34801561052357600080fd5b5061052c61127b565b005b34801561053a57600080fd5b50610543611303565b6040516105509190613441565b60405180910390f35b34801561056557600080fd5b5061056e611316565b60405161057b919061363e565b60405180910390f35b34801561059057600080fd5b5061059961131c565b6040516105a691906133da565b60405180910390f35b3480156105bb57600080fd5b506105d660048036038101906105d19190612f7b565b611346565b005b3480156105e457600080fd5b506105ff60048036038101906105fa9190612ebf565b6113cc565b005b34801561060d57600080fd5b50610616611465565b604051610623919061345c565b60405180910390f35b34801561063857600080fd5b506106416114f7565b60405161064e919061363e565b60405180910390f35b34801561066357600080fd5b5061067e60048036038101906106799190612f7b565b6114fd565b005b61069a60048036038101906106959190612f7b565b611583565b005b3480156106a857600080fd5b506106c360048036038101906106be9190612e06565b61192b565b005b3480156106d157600080fd5b506106da611aa3565b6040516106e7919061363e565b60405180910390f35b3480156106fc57600080fd5b5061071760048036038101906107129190612cd7565b611aa9565b604051610724919061363e565b60405180910390f35b34801561073957600080fd5b50610754600480360381019061074f9190612d8b565b611ac1565b005b34801561076257600080fd5b5061077d60048036038101906107789190612f7b565b611b34565b60405161078a919061345c565b60405180910390f35b34801561079f57600080fd5b506107a8611bed565b6040516107b5919061345c565b60405180910390f35b3480156107ca57600080fd5b506107e560048036038101906107e09190612f7b565b611c7b565b005b3480156107f357600080fd5b5061080e60048036038101906108099190612d00565b611d01565b60405161081b9190613441565b60405180910390f35b34801561083057600080fd5b5061084b60048036038101906108469190612cd7565b611d95565b005b60006301ffc9a760e01b827bffffffffffffffffffffffffffffffffffffffffffffffffffffffff191614806108a857506380ac58cd60e01b827bffffffffffffffffffffffffffffffffffffffffffffffffffffffff1916145b806108d85750635b5e139f60e01b827bffffffffffffffffffffffffffffffffffffffffffffffffffffffff1916145b9050919050565b6060600280546108ee9061393a565b80601f016020809104026020016040519081016040528092919081815260200182805461091a9061393a565b80156109675780601f1061093c57610100808354040283529160200191610967565b820191906000526020600020905b81548152906001019060200180831161094a57829003601f168201915b5050505050905090565b600061097c82611e8d565b6109b2576040517fcf4700e400000000000000000000000000000000000000000000000000000000815260040160405180910390fd5b6006600083815260200190815260200160002060009054906101000a900473ffffffffffffffffffffffffffffffffffffffff169050919050565b60006109f882611117565b90508073ffffffffffffffffffffffffffffffffffffffff16610a19611eec565b73ffffffffffffffffffffffffffffffffffffffff1614610a7c57610a4581610a40611eec565b611d01565b610a7b576040517fcfb3b94200000000000000000000000000000000000000000000000000000000815260040160405180910390fd5b5b826006600084815260200190815260200160002060006101000a81548173ffffffffffffffffffffffffffffffffffffffff021916908373ffffffffffffffffffffffffffffffffffffffff160217905550818373ffffffffffffffffffffffffffffffffffffffff168273ffffffffffffffffffffffffffffffffffffffff167f8c5be1e5ebec7d5bd14f71427d1e84f3dd0314c0f7b2291e5b200ac8c7c3b92560405160405180910390a4505050565b6000610b38611ef4565b6001546000540303905090565b6000610b5082611ef9565b90508373ffffffffffffffffffffffffffffffffffffffff168173ffffffffffffffffffffffffffffffffffffffff1614610bb7576040517fa114810000000000000000000000000000000000000000000000000000000000815260040160405180910390fd5b600080610bc384611fc7565b91509150610bd98187610bd4611eec565b611fe9565b610c2557610bee86610be9611eec565b611d01565b610c24576040517f59c896be00000000000000000000000000000000000000000000000000000000815260040160405180910390fd5b5b600073ffffffffffffffffffffffffffffffffffffffff168573ffffffffffffffffffffffffffffffffffffffff161415610c8c576040517fea553b3400000000000000000000000000000000000000000000000000000000815260040160405180910390fd5b610c99868686600161202d565b8015610ca457600082555b600560008773ffffffffffffffffffffffffffffffffffffffff1673ffffffffffffffffffffffffffffffffffffffff168152602001908152602001600020600081546001900391905081905550600560008673ffffffffffffffffffffffffffffffffffffffff1673ffffffffffffffffffffffffffffffffffffffff1681526020019081526020016000206000815460010191905081905550610d7285610d4e888887612033565b7c02000000000000000000000000000000000000000000000000000000001761205b565b600460008681526020019081526020016000208190555060007c020000000000000000000000000000000000000000000000000000000084161415610dfa576000600185019050600060046000838152602001908152602001600020541415610df8576000548114610df7578360046000838152602001908152602001600020819055505b5b505b838573ffffffffffffffffffffffffffffffffffffffff168773ffffffffffffffffffffffffffffffffffffffff167fddf252ad1be2c89b69c2b068fc378daa952ba7f163c4a11628f55a4df523b3ef60405160405180910390a4610e628686866001612086565b505050505050565b610e7261208c565b73ffffffffffffffffffffffffffffffffffffffff16610e9061131c565b73ffffffffffffffffffffffffffffffffffffffff1614610ee6576040517f08c379a0000000000000000000000000000000000000000000000000000000008152600401610edd906134fe565b60405180910390fd5b60008151905060005b81811015610f59576000838281518110610f32577f4e487b7100000000000000000000000000000000000000000000000000000000600052603260045260246000fd5b60200260200101519050610f4581612094565b508080610f519061399d565b915050610eef565b505050565b600b5481565b610f6c61208c565b73ffffffffffffffffffffffffffffffffffffffff16610f8a61131c565b73ffffffffffffffffffffffffffffffffffffffff1614610fe0576040517f08c379a0000000000000000000000000000000000000000000000000000000008152600401610fd7906134fe565b60405180910390fd5b60026009541415611026576040517f08c379a000000000000000000000000000000000000000000000000000000000815260040161101d906135de565b60405180910390fd5b600260098190555061103833476120a2565b6001600981905550565b600c5481565b61106383838360405180602001604052806000815250611ac1565b505050565b600e5481565b601160019054906101000a900460ff1681565b61108961208c565b73ffffffffffffffffffffffffffffffffffffffff166110a761131c565b73ffffffffffffffffffffffffffffffffffffffff16146110fd576040517f08c379a00000000000000000000000000000000000000000000000000000000081526004016110f4906134fe565b60405180910390fd5b80600a9080519060200190611113929190612a65565b5050565b600061112282611ef9565b9050919050565b61113161208c565b73ffffffffffffffffffffffffffffffffffffffff1661114f61131c565b73ffffffffffffffffffffffffffffffffffffffff16146111a5576040517f08c379a000000000000000000000000000000000000000000000000000000000815260040161119c906134fe565b60405180910390fd5b80601160006101000a81548160ff02191690831515021790555050565b60008073ffffffffffffffffffffffffffffffffffffffff168273ffffffffffffffffffffffffffffffffffffffff16141561122a576040517f8f4eb60400000000000000000000000000000000000000000000000000000000815260040160405180910390fd5b67ffffffffffffffff600560008473ffffffffffffffffffffffffffffffffffffffff1673ffffffffffffffffffffffffffffffffffffffff16815260200190815260200160002054169050919050565b61128361208c565b73ffffffffffffffffffffffffffffffffffffffff166112a161131c565b73ffffffffffffffffffffffffffffffffffffffff16146112f7576040517f08c379a00000000000000000000000000000000000000000000000000000000081526004016112ee906134fe565b60405180910390fd5b6113016000612196565b565b601160009054906101000a900460ff1681565b600f5481565b6000600860009054906101000a900473ffffffffffffffffffffffffffffffffffffffff16905090565b61134e61208c565b73ffffffffffffffffffffffffffffffffffffffff1661136c61131c565b73ffffffffffffffffffffffffffffffffffffffff16146113c2576040517f08c379a00000000000000000000000000000000000000000000000000000000081526004016113b9906134fe565b60405180910390fd5b80600f8190555050565b6113d461208c565b73ffffffffffffffffffffffffffffffffffffffff166113f261131c565b73ffffffffffffffffffffffffffffffffffffffff1614611448576040517f08c379a000000000000000000000000000000000000000000000000000000000815260040161143f906134fe565b60405180910390fd5b80601160016101000a81548160ff02191690831515021790555050565b6060600380546114749061393a565b80601f01602080910402602001604051908101604052809291908181526020018280546114a09061393a565b80156114ed5780601f106114c2576101008083540402835291602001916114ed565b820191906000526020600020905b8154815290600101906020018083116114d057829003601f168201915b5050505050905090565b60105481565b61150561208c565b73ffffffffffffffffffffffffffffffffffffffff1661152361131c565b73ffffffffffffffffffffffffffffffffffffffff1614611579576040517f08c379a0000000000000000000000000000000000000000000000000000000008152600401611570906134fe565b60405180910390fd5b80600d8190555050565b601160009054906101000a900460ff166115d2576040517f08c379a00000000000000000000000000000000000000000000000000000000081526004016115c99061357e565b60405180910390fd5b60008111611615576040517f08c379a000000000000000000000000000000000000000000000000000000000815260040161160c906135fe565b60405180910390fd5b600d5481111561165a576040517f08c379a00000000000000000000000000000000000000000000000000000000081526004016116519061351e565b60405180910390fd5b600b5481611666610b2e565b611670919061376f565b11156116b1576040517f08c379a00000000000000000000000000000000000000000000000000000000081526004016116a89061361e565b60405180910390fd5b60006116bc336111c2565b9050600e5482826116cd919061376f565b111561170e576040517f08c379a00000000000000000000000000000000000000000000000000000000081526004016117059061349e565b60405180910390fd5b6000600c5461171b610b2e565b1090506000601054601260003373ffffffffffffffffffffffffffffffffffffffff1673ffffffffffffffffffffffffffffffffffffffff16815260200190815260200160002054101590506000811580156117745750825b905081156117c057600034116117bf576040517f08c379a00000000000000000000000000000000000000000000000000000000081526004016117b69061355e565b60405180910390fd5b5b60008180156117cf5750600186145b80156117db5750600034145b90508180156117e8575080155b1561184b57601054866117fb9190613850565b600f5461180891906137f6565b34101561184a576040517f08c379a00000000000000000000000000000000000000000000000000000000081526004016118419061359e565b60405180910390fd5b5b60008115801561186157508380611860575084155b5b905080156118ba5786600f5461187791906137f6565b3410156118b9576040517f08c379a00000000000000000000000000000000000000000000000000000000081526004016118b0906135be565b60405180910390fd5b5b8215611918576001601260003373ffffffffffffffffffffffffffffffffffffffff1673ffffffffffffffffffffffffffffffffffffffff1681526020019081526020016000206000828254611910919061376f565b925050819055505b611922338861225c565b50505050505050565b611933611eec565b73ffffffffffffffffffffffffffffffffffffffff168273ffffffffffffffffffffffffffffffffffffffff161415611998576040517fb06307db00000000000000000000000000000000000000000000000000000000815260040160405180910390fd5b80600760006119a5611eec565b73ffffffffffffffffffffffffffffffffffffffff1673ffffffffffffffffffffffffffffffffffffffff16815260200190815260200160002060008473ffffffffffffffffffffffffffffffffffffffff1673ffffffffffffffffffffffffffffffffffffffff16815260200190815260200160002060006101000a81548160ff0219169083151502179055508173ffffffffffffffffffffffffffffffffffffffff16611a52611eec565b73ffffffffffffffffffffffffffffffffffffffff167f17307eab39ab6107e8899845ad3d59bd9653f200f220920489ca2b5937696c3183604051611a979190613441565b60405180910390a35050565b600d5481565b60126020528060005260406000206000915090505481565b611acc848484610b45565b60008373ffffffffffffffffffffffffffffffffffffffff163b14611b2e57611af78484848461227a565b611b2d576040517fd1a57ed600000000000000000000000000000000000000000000000000000000815260040160405180910390fd5b5b50505050565b6060611b3f82611e8d565b611b7e576040517f08c379a0000000000000000000000000000000000000000000000000000000008152600401611b759061353e565b60405180910390fd5b601160019054906101000a900460ff16611bba57600a604051602001611ba49190613369565b6040516020818303038152906040529050611be8565b600a611bc5836123da565b604051602001611bd692919061338b565b60405160208183030381529060405290505b919050565b600a8054611bfa9061393a565b80601f0160208091040260200160405190810160405280929190818152602001828054611c269061393a565b8015611c735780601f10611c4857610100808354040283529160200191611c73565b820191906000526020600020905b815481529060010190602001808311611c5657829003601f168201915b505050505081565b611c8361208c565b73ffffffffffffffffffffffffffffffffffffffff16611ca161131c565b73ffffffffffffffffffffffffffffffffffffffff1614611cf7576040517f08c379a0000000000000000000000000000000000000000000000000000000008152600401611cee906134fe565b60405180910390fd5b8060108190555050565b6000600760008473ffffffffffffffffffffffffffffffffffffffff1673ffffffffffffffffffffffffffffffffffffffff16815260200190815260200160002060008373ffffffffffffffffffffffffffffffffffffffff1673ffffffffffffffffffffffffffffffffffffffff16815260200190815260200160002060009054906101000a900460ff16905092915050565b611d9d61208c565b73ffffffffffffffffffffffffffffffffffffffff16611dbb61131c565b73ffffffffffffffffffffffffffffffffffffffff1614611e11576040517f08c379a0000000000000000000000000000000000000000000000000000000008152600401611e08906134fe565b60405180910390fd5b600073ffffffffffffffffffffffffffffffffffffffff168173ffffffffffffffffffffffffffffffffffffffff161415611e81576040517f08c379a0000000000000000000000000000000000000000000000000000000008152600401611e789061347e565b60405180910390fd5b611e8a81612196565b50565b600081611e98611ef4565b11158015611ea7575060005482105b8015611ee5575060007c0100000000000000000000000000000000000000000000000000000000600460008581526020019081526020016000205416145b9050919050565b600033905090565b600090565b60008082905080611f08611ef4565b11611f9057600054811015611f8f5760006004600083815260200190815260200160002054905060007c010000000000000000000000000000000000000000000000000000000082161415611f8d575b6000811415611f83576004600083600190039350838152602001908152602001600020549050611f58565b8092505050611fc2565b505b5b6040517fdf2d9b4200000000000000000000000000000000000000000000000000000000815260040160405180910390fd5b919050565b6000806000600690508360005280602052604060002092508254915050915091565b600073ffffffffffffffffffffffffffffffffffffffff8316925073ffffffffffffffffffffffffffffffffffffffff821691508382148383141790509392505050565b50505050565b60008060e883901c905060e861204a868684612587565b62ffffff16901b9150509392505050565b600073ffffffffffffffffffffffffffffffffffffffff83169250814260a01b178317905092915050565b50505050565b600033905090565b61209f816000612590565b50565b804710156120e5576040517f08c379a00000000000000000000000000000000000000000000000000000000081526004016120dc906134de565b60405180910390fd5b60008273ffffffffffffffffffffffffffffffffffffffff168260405161210b906133c5565b60006040518083038185875af1925050503d8060008114612148576040519150601f19603f3d011682016040523d82523d6000602084013e61214d565b606091505b5050905080612191576040517f08c379a0000000000000000000000000000000000000000000000000000000008152600401612188906134be565b60405180910390fd5b505050565b6000600860009054906101000a900473ffffffffffffffffffffffffffffffffffffffff16905081600860006101000a81548173ffffffffffffffffffffffffffffffffffffffff021916908373ffffffffffffffffffffffffffffffffffffffff1602179055508173ffffffffffffffffffffffffffffffffffffffff168173ffffffffffffffffffffffffffffffffffffffff167f8be0079c531659141344cd1fd0a4f28419497f9722a3daafe3b4186f6b6457e060405160405180910390a35050565b6122768282604051806020016040528060008152506127e4565b5050565b60008373ffffffffffffffffffffffffffffffffffffffff1663150b7a026122a0611eec565b8786866040518563ffffffff1660e01b81526004016122c294939291906133f5565b602060405180830381600087803b1580156122dc57600080fd5b505af192505050801561230d57506040513d601f19601f8201168201806040525081019061230a9190612f11565b60015b612387573d806000811461233d576040519150601f19603f3d011682016040523d82523d6000602084013e612342565b606091505b5060008151141561237f576040517fd1a57ed600000000000000000000000000000000000000000000000000000000815260040160405180910390fd5b805181602001fd5b63150b7a0260e01b7bffffffffffffffffffffffffffffffffffffffffffffffffffffffff1916817bffffffffffffffffffffffffffffffffffffffffffffffffffffffff191614915050949350505050565b60606000821415612422576040518060400160405280600181526020017f30000000000000000000000000000000000000000000000000000000000000008152509050612582565b600082905060005b6000821461245457808061243d9061399d565b915050600a8261244d91906137c5565b915061242a565b60008167ffffffffffffffff811115612496577f4e487b7100000000000000000000000000000000000000000000000000000000600052604160045260246000fd5b6040519080825280601f01601f1916602001820160405280156124c85781602001600182028036833780820191505090505b5090505b6000851461257b576001826124e19190613850565b9150600a856124f091906139e6565b60306124fc919061376f565b60f81b818381518110612538577f4e487b7100000000000000000000000000000000000000000000000000000000600052603260045260246000fd5b60200101907effffffffffffffffffffffffffffffffffffffffffffffffffffffffffffff1916908160001a905350600a8561257491906137c5565b94506124cc565b8093505050505b919050565b60009392505050565b600061259b83611ef9565b905060008190506000806125ae86611fc7565b915091508415612617576125ca81846125c5611eec565b611fe9565b612616576125df836125da611eec565b611d01565b612615576040517f59c896be00000000000000000000000000000000000000000000000000000000815260040160405180910390fd5b5b5b61262583600088600161202d565b801561263057600082555b600160806001901b03600560008573ffffffffffffffffffffffffffffffffffffffff1673ffffffffffffffffffffffffffffffffffffffff168152602001908152602001600020600082825401925050819055506126d88361269585600088612033565b7c02000000000000000000000000000000000000000000000000000000007c0100000000000000000000000000000000000000000000000000000000171761205b565b600460008881526020019081526020016000208190555060007c02000000000000000000000000000000000000000000000000000000008516141561276057600060018701905060006004600083815260200190815260200160002054141561275e57600054811461275d578460046000838152602001908152602001600020819055505b5b505b85600073ffffffffffffffffffffffffffffffffffffffff168473ffffffffffffffffffffffffffffffffffffffff167fddf252ad1be2c89b69c2b068fc378daa952ba7f163c4a11628f55a4df523b3ef60405160405180910390a46127ca836000886001612086565b600160008154809291906001019190505550505050505050565b6127ee8383612881565b60008373ffffffffffffffffffffffffffffffffffffffff163b1461287c57600080549050600083820390505b61282e600086838060010194508661227a565b612864576040517fd1a57ed600000000000000000000000000000000000000000000000000000000815260040160405180910390fd5b81811061281b57816000541461287957600080fd5b50505b505050565b600080549050600073ffffffffffffffffffffffffffffffffffffffff168373ffffffffffffffffffffffffffffffffffffffff1614156128ee576040517f2e07630000000000000000000000000000000000000000000000000000000000815260040160405180910390fd5b6000821415612929576040517fb562e8dd00000000000000000000000000000000000000000000000000000000815260040160405180910390fd5b612936600084838561202d565b600160406001901b178202600560008573ffffffffffffffffffffffffffffffffffffffff1673ffffffffffffffffffffffffffffffffffffffff168152602001908152602001600020600082825401925050819055506129ad8361299e6000866000612033565b6129a785612a55565b1761205b565b60046000838152602001908152602001600020819055506000819050600083830190505b818060010192508573ffffffffffffffffffffffffffffffffffffffff16600073ffffffffffffffffffffffffffffffffffffffff167fddf252ad1be2c89b69c2b068fc378daa952ba7f163c4a11628f55a4df523b3ef60405160405180910390a48082106129d157806000819055505050612a506000848385612086565b505050565b60006001821460e11b9050919050565b828054612a719061393a565b90600052602060002090601f016020900481019282612a935760008555612ada565b82601f10612aac57805160ff1916838001178555612ada565b82800160010185558215612ada579182015b82811115612ad9578251825591602001919060010190612abe565b5b509050612ae79190612aeb565b5090565b5b80821115612b04576000816000905550600101612aec565b5090565b6000612b1b612b168461367e565b613659565b90508083825260208201905082856020860282011115612b3a57600080fd5b60005b85811015612b6a5781612b508882612cc2565b845260208401935060208301925050600181019050612b3d565b5050509392505050565b6000612b87612b82846136aa565b613659565b905082815260208101848484011115612b9f57600080fd5b612baa8482856138f8565b509392505050565b6000612bc5612bc0846136db565b613659565b905082815260208101848484011115612bdd57600080fd5b612be88482856138f8565b509392505050565b600081359050612bff81613e38565b92915050565b600082601f830112612c1657600080fd5b8135612c26848260208601612b08565b91505092915050565b600081359050612c3e81613e4f565b92915050565b600081359050612c5381613e66565b92915050565b600081519050612c6881613e66565b92915050565b600082601f830112612c7f57600080fd5b8135612c8f848260208601612b74565b91505092915050565b600082601f830112612ca957600080fd5b8135612cb9848260208601612bb2565b91505092915050565b600081359050612cd181613e7d565b92915050565b600060208284031215612ce957600080fd5b6000612cf784828501612bf0565b91505092915050565b60008060408385031215612d1357600080fd5b6000612d2185828601612bf0565b9250506020612d3285828601612bf0565b9150509250929050565b600080600060608486031215612d5157600080fd5b6000612d5f86828701612bf0565b9350506020612d7086828701612bf0565b9250506040612d8186828701612cc2565b9150509250925092565b60008060008060808587031215612da157600080fd5b6000612daf87828801612bf0565b9450506020612dc087828801612bf0565b9350506040612dd187828801612cc2565b925050606085013567ffffffffffffffff811115612dee57600080fd5b612dfa87828801612c6e565b91505092959194509250565b60008060408385031215612e1957600080fd5b6000612e2785828601612bf0565b9250506020612e3885828601612c2f565b9150509250929050565b60008060408385031215612e5557600080fd5b6000612e6385828601612bf0565b9250506020612e7485828601612cc2565b9150509250929050565b600060208284031215612e9057600080fd5b600082013567ffffffffffffffff811115612eaa57600080fd5b612eb684828501612c05565b91505092915050565b600060208284031215612ed157600080fd5b6000612edf84828501612c2f565b91505092915050565b600060208284031215612efa57600080fd5b6000612f0884828501612c44565b91505092915050565b600060208284031215612f2357600080fd5b6000612f3184828501612c59565b91505092915050565b600060208284031215612f4c57600080fd5b600082013567ffffffffffffffff811115612f6657600080fd5b612f7284828501612c98565b91505092915050565b600060208284031215612f8d57600080fd5b6000612f9b84828501612cc2565b91505092915050565b612fad81613884565b82525050565b612fbc81613896565b82525050565b6000612fcd82613721565b612fd78185613737565b9350612fe7818560208601613907565b612ff081613ad3565b840191505092915050565b60006130068261372c565b6130108185613753565b9350613020818560208601613907565b61302981613ad3565b840191505092915050565b600061303f8261372c565b6130498185613764565b9350613059818560208601613907565b80840191505092915050565b600081546130728161393a565b61307c8186613764565b9450600182166000811461309757600181146130a8576130db565b60ff198316865281860193506130db565b6130b18561370c565b60005b838110156130d3578154818901526001820191506020810190506130b4565b838801955050505b50505092915050565b60006130f1600c83613764565b91506130fc82613ae4565b600c82019050919050565b6000613114602683613753565b915061311f82613b0d565b604082019050919050565b6000613137600f83613753565b915061314282613b5c565b602082019050919050565b600061315a603a83613753565b915061316582613b85565b604082019050919050565b600061317d601d83613753565b915061318882613bd4565b602082019050919050565b60006131a0600583613764565b91506131ab82613bfd565b600582019050919050565b60006131c3602083613753565b91506131ce82613c26565b602082019050919050565b60006131e6602583613753565b91506131f182613c4f565b604082019050919050565b6000613209602f83613753565b915061321482613c9e565b604082019050919050565b600061322c601983613753565b915061323782613ced565b602082019050919050565b600061324f600f83613753565b915061325a82613d16565b602082019050919050565b6000613272600083613748565b915061327d82613d3f565b600082019050919050565b6000613295600583613753565b91506132a082613d42565b602082019050919050565b60006132b8601883613753565b91506132c382613d6b565b602082019050919050565b60006132db601f83613753565b91506132e682613d94565b602082019050919050565b60006132fe601683613753565b915061330982613dbd565b602082019050919050565b6000613321600c83613753565b915061332c82613de6565b602082019050919050565b6000613344600183613764565b915061334f82613e0f565b600182019050919050565b613363816138ee565b82525050565b60006133758284613065565b9150613380826130e4565b915081905092915050565b60006133978285613065565b91506133a282613337565b91506133ae8284613034565b91506133b982613193565b91508190509392505050565b60006133d082613265565b9150819050919050565b60006020820190506133ef6000830184612fa4565b92915050565b600060808201905061340a6000830187612fa4565b6134176020830186612fa4565b613424604083018561335a565b81810360608301526134368184612fc2565b905095945050505050565b60006020820190506134566000830184612fb3565b92915050565b600060208201905081810360008301526134768184612ffb565b905092915050565b6000602082019050818103600083015261349781613107565b9050919050565b600060208201905081810360008301526134b78161312a565b9050919050565b600060208201905081810360008301526134d78161314d565b9050919050565b600060208201905081810360008301526134f781613170565b9050919050565b60006020820190508181036000830152613517816131b6565b9050919050565b60006020820190508181036000830152613537816131d9565b9050919050565b60006020820190508181036000830152613557816131fc565b9050919050565b600060208201905081810360008301526135778161321f565b9050919050565b6000602082019050818103600083015261359781613242565b9050919050565b600060208201905081810360008301526135b781613288565b9050919050565b600060208201905081810360008301526135d7816132ab565b9050919050565b600060208201905081810360008301526135f7816132ce565b9050919050565b60006020820190508181036000830152613617816132f1565b9050919050565b6000602082019050818103600083015261363781613314565b9050919050565b6000602082019050613653600083018461335a565b92915050565b6000613663613674565b905061366f828261396c565b919050565b6000604051905090565b600067ffffffffffffffff82111561369957613698613aa4565b5b602082029050602081019050919050565b600067ffffffffffffffff8211156136c5576136c4613aa4565b5b6136ce82613ad3565b9050602081019050919050565b600067ffffffffffffffff8211156136f6576136f5613aa4565b5b6136ff82613ad3565b9050602081019050919050565b60008190508160005260206000209050919050565b600081519050919050565b600081519050919050565b600082825260208201905092915050565b600081905092915050565b600082825260208201905092915050565b600081905092915050565b600061377a826138ee565b9150613785836138ee565b9250827fffffffffffffffffffffffffffffffffffffffffffffffffffffffffffffffff038211156137ba576137b9613a17565b5b828201905092915050565b60006137d0826138ee565b91506137db836138ee565b9250826137eb576137ea613a46565b5b828204905092915050565b6000613801826138ee565b915061380c836138ee565b9250817fffffffffffffffffffffffffffffffffffffffffffffffffffffffffffffffff048311821515161561384557613844613a17565b5b828202905092915050565b600061385b826138ee565b9150613866836138ee565b92508282101561387957613878613a17565b5b828203905092915050565b600061388f826138ce565b9050919050565b60008115159050919050565b60007fffffffff0000000000000000000000000000000000000000000000000000000082169050919050565b600073ffffffffffffffffffffffffffffffffffffffff82169050919050565b6000819050919050565b82818337600083830152505050565b60005b8381101561392557808201518184015260208101905061390a565b83811115613934576000848401525b50505050565b6000600282049050600182168061395257607f821691505b6020821081141561396657613965613a75565b5b50919050565b61397582613ad3565b810181811067ffffffffffffffff8211171561399457613993613aa4565b5b80604052505050565b60006139a8826138ee565b91507fffffffffffffffffffffffffffffffffffffffffffffffffffffffffffffffff8214156139db576139da613a17565b5b600182019050919050565b60006139f1826138ee565b91506139fc836138ee565b925082613a0c57613a0b613a46565b5b828206905092915050565b7f4e487b7100000000000000000000000000000000000000000000000000000000600052601160045260246000fd5b7f4e487b7100000000000000000000000000000000000000000000000000000000600052601260045260246000fd5b7f4e487b7100000000000000000000000000000000000000000000000000000000600052602260045260246000fd5b7f4e487b7100000000000000000000000000000000000000000000000000000000600052604160045260246000fd5b6000601f19601f8301169050919050565b7f2f68696464656e2e6a736f6e0000000000000000000000000000000000000000600082015250565b7f4f776e61626c653a206e6577206f776e657220697320746865207a65726f206160008201527f6464726573730000000000000000000000000000000000000000000000000000602082015250565b7f4d6f7265207468616e206c696d69740000000000000000000000000000000000600082015250565b7f416464726573733a20756e61626c6520746f2073656e642076616c75652c207260008201527f6563697069656e74206d61792068617665207265766572746564000000000000602082015250565b7f416464726573733a20696e73756666696369656e742062616c616e6365000000600082015250565b7f2e6a736f6e000000000000000000000000000000000000000000000000000000600082015250565b7f4f776e61626c653a2063616c6c6572206973206e6f7420746865206f776e6572600082015250565b7f4d6178206d6f6e737465727320706572207472616e73616374696f6e2065786360008201527f6565646564000000000000000000000000000000000000000000000000000000602082015250565b7f4552433732314d657461646174613a2055524920717565727920666f72206e6f60008201527f6e6578697374656e7420746f6b656e0000000000000000000000000000000000602082015250565b7f596f7520616c7265616479206d696e7465642061206672656500000000000000600082015250565b7f4572726f72206e6f742072656164790000000000000000000000000000000000600082015250565b50565b7f4572726f72000000000000000000000000000000000000000000000000000000600082015250565b7f496e636f7272656374204554482076616c75652073656e740000000000000000600082015250565b7f5265656e7472616e637947756172643a207265656e7472616e742063616c6c00600082015250565b7f4e65656420746f206265206d6f7265207468616e203000000000000000000000600082015250565b7f546865206d696e7420656e640000000000000000000000000000000000000000600082015250565b7f2f00000000000000000000000000000000000000000000000000000000000000600082015250565b613e4181613884565b8114613e4c57600080fd5b50565b613e5881613896565b8114613e6357600080fd5b50565b613e6f816138a2565b8114613e7a57600080fd5b50565b613e86816138ee565b8114613e9157600080fd5b5056fea2646970667358221220fcf27bf7b65806092cbc966970decf8eb43debb2b75eaf105c4651902de5833064736f6c6343000804003368747470733a2f2f62616679626569633666696c7874746c7468686d67717363677a6272796f7775376a637461776666366f666f3567326b74796e786d7275766c32612e697066732e6e667473746f726167652e6c696e6b2f6d65746164617461",
  "linkReferences": {},
  "deployedLinkReferences": {}
}